:020000040800F2
:10000000F00C0020E901000831190008311800083F
:100010002D190008E51300080F2200080000000059
:10002000000000000000000000000000111B00089C
:10003000E516000800000000B9190008651D000859
:10004000030200080302000803020008030200087C
:10005000030200080302000803020008030200086C
:10006000030200080302000803020008030200085C
:10007000030200080302000803020008030200084C
:10008000030200080302000803020008030200083C
:10009000030200080302000803020008030200082C
:1000A000030200080302000803020008030200081C
:1000B000030200080302000803020008030200080C
:1000C00003020008030200080302000803020008FC
:1000D00003020008C91D0008511E000803020008A1
:1000E00003020008030200080302000800F002F8FF
:1000F00000F06AF80AA090E8000C82448344AAF158
:100100000107DA4501D100F05FF8AFF2090EBAE855
:100110000F0013F0010F18BFFB1A43F0010318473B
:10012000AC260000CC2600000A444FF0000C10F86A
:10013000013B13F0070408BF10F8014B1D1108BF65
:1001400010F8015B641E05D010F8016B641E01F805
:10015000016BF9D113F0080F1EBF10F8014BAD1C55
:100160000C1B09D16D1E58BF01F801CBFAD505E073
:1001700014F8016B01F8016B6D1EF9D59142D6D3CD
:10018000704700000023002400250026103A28BFF5
:1001900078C1FBD8520728BF30C148BF0B607047F9
:1001A000662902F0BE82642900F04C80002070476E
:1001B0001FB500F0DDFB04000020002102F046F92D
:1001C000E0601FBD10B510BD00F0D6FC1146FFF772
:1001D000EFFF02F091F800F0F4FC03B4FFF7F2FF38
:1001E00003BC02F031F80000094880470948004785
:1001F000FEE7FEE7FEE7FEE7FEE7FEE7FEE7FEE7D7
:10020000FEE7FEE704480549054A064B7047000033
:10021000691D0008ED000008F0060020F00C002029
:10022000F0080020F0080020704700000FB40449D7
:1002300010B503AA029800F089FB10BC5DF814FB0E
:10024000180000202DE9F0410646002410687529A9
:10025000314616A510D0AFF30080002802DA4042E4
:1002600013A507E031688A0701D512A502E0490706
:1002700004D511A5012401E0AFF3008000210A227A
:1002800006F1240709E0B0FBF2FCB0FBF2F302FB3D
:100290001C00303078541846491C0028F3D12346FE
:1002A0002A463046BDE8F04100F0D0B8000000001A
:1002B0002D0000002B000000200000002DE9F05F61
:1002C000894604464FF0000ADFF874B1FB44C0F8D9
:1002D00020A02046E1688847002874D0252806D051
:1002E000D4E901219047206A401C2062F1E70026F2
:1002F0005F462046E16888472028054607DB312D08
:1003000005D2781910F8200C08B10643F1E7B007C0
:1003100001D526F00406C4F81CA00027C4F818A0D4
:100320002A2D09D0284601F088FF38B304EB87084E
:10033000303DC8F8185019E059F8041B204604EB6A
:1003400087029161E1688847012F054618D1E0696D
:10035000002820DA26F020061DE0D8F8180000EB6F
:10036000800005EB40003038C8F818002046E168EE
:100370008847054601F061FF0028EED1012F0AD021
:100380002E2D08D12046E16888477F1C0546022FA4
:1003900046F02006C4DBA069002803DA404246F09C
:1003A0000106A061F00701D026F010066C2D0BD0DD
:1003B000682D09D04C2D39D06A2D35D0742D35D00B
:1003C0007A2D33D016E038E0E1682F462046884782
:1003D000B842054609D16C2F26D04FF48060E16801
:1003E000064320468847054604E06C2F1AD04FF498
:1003F000807006430DB3A5F14100192802D82035BD
:1004000046F400664A462946204626604E46FFF7D7
:10041000C7FE80B101280BD0F61D26F0070000F1C1
:10042000080956E74020E4E78020D8E70020D6E717
:1004300006F104094DE7284652E7206ABDE8F09F1F
:100440005624000070477047704770472DE9F04709
:100450000D4699469246044600F124080168880634
:1004600004D5E06921F01001216000E00120A842DC
:1004700001DD471B00E00027A1697A1902EB0900A2
:10048000081AA0612078C00602D42046AFF300808D
:10049000002608E0D4E901211AF806009047206AF6
:1004A000401C761C20624E45F4DB2078C0060AD53D
:1004B0002046AFF3008006E0D4E9012130209047C8
:1004C000206A401C2062381EA7F10107F4DC07E017
:1004D000D4E9012118F805009047206A401C2062E9
:1004E000281EA5F10105F3DC2046AFF3008020783B
:1004F000000602D50220BDE8F0870120FBE7704727
:100500002DE9FF4F0C461E464FF0FF378BB0D2E966
:100510000001DDF860800A908A46C1F30A5505B9EA
:100520003D46002108464FF00000BAF1000F00F4EC
:10053000400005DA00EB80004FF4400101EA500072
:100540004FEA9059B9F1010F00DDB9460A9850EA17
:100550004A000ED044F61050A5F2FF3545432F1443
:10056000B8F1000F1ED07542291E1EDDC9F1000230
:100570001CE0B8F1010F4FF0000001D0302103E082
:10058000F24305E02154401CB042FBDB3046002220
:10059000002121540B99C1F80880C1E900200FB057
:1005A000BDE8F08FBD1B6D1CDEE74A4600DA6942EC
:1005B00006A800F067FA06AB93E8070003AB83E8F0
:1005C000070050460A9900F045FB8DE80700A0F5AA
:1005D00000501F3800900398002D0ADD42F21F01E1
:1005E0004A460844002303A90390684600F0AEFD84
:1005F00009E0A0F500504A461F38002303A90390E4
:10060000684600F0B8FD8DE807000004000C03D038
:100610004FF0FF30410800E01046B8F1000F03D062
:100620000022009215461EE0751E05D400F0A4F9C4
:10063000303262556D1EF9D5B3460122084302D00F
:1006400000227F1C04E02078302801D100227F1E88
:10065000002A099784D01DE0112D07DA00F08CF9EB
:10066000303262556D1C50EA0102F5D1084302D0C8
:100670000098C8B10EE00021681E05E0235C625CB2
:1006800063542254401E491C8142F7DBAB46A81B31
:10069000401E0990002004F80B000B98099AC0F83E
:1006A0000880C0E9002B7AE711264FF0000857E7D1
:1006B0002DE9F04F88460446D21D22F0070191B083
:1006C000D1E90001CDE90A0101F0A3FD02460B9832
:1006D000C00F01D02D2007E02068810701D52B2015
:1006E00002E0202101EAC000032A099001D0072A74
:1006F00005DB03464146204600F084F90BE12078F3
:10070000800601D5E06900E00620B8F1650F81465A
:1007100006D0B8F1660F18D0B8F1670F70D131E08C
:100720000020B9F1110F009001DB112301E009F164
:1007300001030AAA01A90CA8FFF7E2FEDDE90C708B
:10074000002609F10105834647E001204B46009051
:100750004FF000470AAA01A90CA8FFF7D1FEDDE976
:100760000DB00C995D46002610B909F101000D1875
:10077000B9EB050003D4C0F1FF3609F10105A5EB83
:1007800009002BE0B9F1010F01DA4FF00109002057
:10079000B9F1110F0090484601DD112300E0034636
:1007A0000AAA01A90CA8FFF7ABFEDDE90C704D46C3
:1007B00000268346207800070AD4AB4500DA5D4660
:1007C00001A8012D04DD411911F8011C302907D0C1
:1007D0004F4502DA17F1040F04DA012082460FE0D8
:1007E0006D1EEEE7002F02DCED1B3E4403E0781C9B
:1007F000A84200DD7D1CB81B00F1010A4FF0004744
:100800002078000703D4AA4501DB4FF0FF3A00210E
:10081000B7F1004F0DF143088DF8431024D00220AA
:100820002B23002F01DA7F422D230A21021EA0F183
:10083000010000DC5FB197FBF1FC97FBF1F201FBDB
:100840001C7C17460CF1300C08F801CDEEE7A8F13E
:10085000010003702188090501D5452100E06521CB
:10086000A0F1010800F8011C09980FA9A1EB0807E5
:10087000FF1D00B10120411901EBEA70A169384464
:10088000081A401EA0612078C00602D42046AFF3AB
:100890000080099828B1D4E901219047206A401CC2
:1008A00020622078C00622D52046AFF300801EE0EB
:1008B000002E04DBB34502DD01A8805D00E030209E
:1008C000D4E901219047206A401C2062761CAAF1DD
:1008D00001005FEA000A0AD100F04AF8C068016826
:1008E000405CD4E901219047206A401C2062281E08
:1008F000A5F10105DCDC07E0D4E9012118F8010BC2
:100900009047206A401C2062381EA7F10107F3DCE3
:100910002046AFF30080032011B041E601694A1C74
:1009200002610878704700B58FB0CDE90131002130
:10093000059105497944CDE9031011466846FFF752
:10094000BDFC0FB000BD0000E5FFFFFF074B70B519
:100950000D467B44FFF7E7FF0446284600F004F904
:1009600010B14FF0FF3070BD204670BD87190000F8
:1009700000487047B006002030B5B0F10A024FEAD7
:10098000900E71F100034EEA817EB0EB0E0061EB38
:1009900091014FEA101E4EEA017E10EB0E0041EB72
:1009A00011114FEA102E4EEA016E10EB0E0041EBD2
:1009B00011214FEA104E4EEA014E10EB0E0041EBB2
:1009C0001141401841F100014FEAD00040EA417066
:1009D0004FEAD10110EB80054FEA810444EA90749C
:1009E00044EB01046D1944EB0404521BA3414FF086
:1009F000000348BF0A3200D530BD401C41F1000160
:100A000030BD00002DE9F0411F4604460326016871
:100A1000072A01F4006004DB08B116A505E016A55D
:100A200003E008B115A500E015A521F01000206035
:100A3000A069C01EA0610FB1401EA0612046AFF3A7
:100A400000804FB1D4E9012138469047206A401C0C
:100A50002062C01C206206E0206AFAE7D4E9012186
:100A600015F8010B9047761EF8D22046AFF30080B0
:100A7000BDE8F0814E414E006E616E00494E460069
:100A8000696E66002DE9F047814616468AB0354802
:100A900078440DC88DE80D0032487844801C03ACC2
:100AA0000DC884E80D0041F69B300844372190FBC7
:100AB000F1F290FBF1F5A5F1800501FB12041B3C5E
:100AC00002D56442012000E00020DFF898A08046B3
:100AD0000027FA44AAF1BE0A0EE0E0070AD0324627
:100AE000684607EB470101230AEB810100F043FB55
:100AF0008DE8070064107F1C002CEED1194F7F4455
:100B0000AE3F19E0E80715D007EB04100DF1180A05
:100B100090E80E008AE80E00C068F04201D19819F2
:100B200008903246012306A903A800F024FB03AB7A
:100B300083E807006D10641C002DE3D14FF0010322
:100B400032466946B8F1000F03A802D000F0FEFA61
:100B500001E000F010FBC9E90001C9F808200AB063
:100B6000BDE8F087201D0000007B00F0800070478A
:100B700000487047900600207546FFF7F9FFAE4623
:100B800005006946534620F00700854618B020B599
:100B9000FFF738FBBDE820404FF000064FF000079C
:100BA0004FF000084FF0000B21F00701AC46ACE815
:100BB000C009ACE8C009ACE8C009ACE8C0098D4682
:100BC000704710B50446AFF300802046BDE81040E2
:100BD000FFF703BB4FF0013C50F8042B51F8043BE6
:100BE0009A4221D1A2EB0C03934313EACC1317D101
:100BF00050F8042B51F8043B9A4215D1A2EB0C0398
:100C0000934313EACC130BD150F8042B51F8043B57
:100C10009A4209D1A2EB0C03934313EACC13DBD025
:100C20004FF00000704700BFD01A01BAB1FA81F14D
:100C300001F0180122FA01F0CB40C1F12001DBB232
:100C4000C0B2C01A2CFA01F3D11A914311EAC311B0
:100C5000E6D170475FEA400C08BF91F0000F4FEA01
:100C60008C234FEAC12243EA51514FEA1C5018BF6E
:100C700000F5F0404FEA300018BF41F000415FEA54
:100C80006C5C00F02980BCF1FF3F08BF40F0804061
:100C90007047130C06BF12044FF0100C4FF0000CFD
:100CA000130E04BF12020CF1080C130F04BF120143
:100CB0000CF1040C930F04BF92000CF1020CD30F43
:100CC00004BF52000CF1010C11464FF00002A0F1DC
:100CD0001F00A0EB0C00704711F0004F08BF7047D9
:100CE00031F000413FF4D5AF0B0C06BF09044FF0C3
:100CF000100C4FF0000C0B0E04BF09020CF1080C95
:100D00000B0F04BF09010CF1040C8B0F04BF890009
:100D10000CF1020CCB0F04BF49000CF1010CCCF11B
:100D20002003A0EB0C0022FA03F302FA0CF241EAD2
:100D3000030100F10100704720F07F4C80EA0300BE
:100D400023F07F47ACEB070303F57C5300F0004032
:100D500003F1FF032DE980494FEA154B09B44FEA2F
:100D6000144325EA0B4E24EA03480FF2042606EB4F
:100D7000132749083E785FEA320203FB0667C7F58E
:100D8000000707FB06F64FEA54374FEAD64606F14E
:100D9000020607FB066CCCF1005C4FEA1C472CEA0C
:100DA000074C07FB06F40CFB06F504EB15464FEA6F
:100DB000961634BF00204FF000404FEAD13706FBB3
:100DC00007FC4FEA1C4C0CFB0BF7D21B03FB0CF788
:100DD00061EB07010CFB0EF7B0EB074072EB17421B
:100DE0000CFB08F734BFA2EB0742B2EB074261EB02
:100DF00017414FEA0C444FEA910706FB07FC4FEA04
:100E00001C4C0CFB0BF7B0EBC74072EB573203FBEB
:100E10000CF734BFA2EBC742B2EBC74261EB5731CC
:100E20000CFB0EF7B0EBC70072EB57720CFB08F728
:100E300034BFA2EBC702B2EBC70261EB5771039F4D
:100E40004FEA816141EA921104EBCC044FEAD137B9
:100E50004FEA826206FB07FC42EA90124FEA80608A
:100E60004FEA1C4C0CFB0BF7D21B03FB0CF761EB9E
:100E700007010CFB0EF7B0EB074072EB17420CFBBF
:100E800008F734BFA2EB0742B2EB074261EB174110
:100E90004FEA8C554FEA910704EB9C2406FB07FCB4
:100EA0004FEA1C4C0CFB0BF7B0EBC74072EB573210
:100EB00003FB0CF734BFA2EBC742B2EBC74261EBB6
:100EC00057310CFB0EF7B0EBC70072EB57720CFBFF
:100ED00008F734BFA2EBC702B2EBC70261EB577150
:100EE00015EB4C254FEA816141EA92114FEA82628B
:100EF0004FEAD13742EA901206FB07FC44F10004A6
:100F00004FEA80604FEA1C4C0CFB0BF7D21B03FB33
:100F10000CF761EB07010CFB0EF7B0EB074072EB2F
:100F200017420CFB08F734BFA2EB0742B2EB0742B3
:100F300061EB174115EB1C154FEA813141EA9241F3
:100F40004FEA823242EA90424FEA80304FEA0C7612
:100F500044F1000448EA03434EEA0B484FF0000E08
:100F6000B2EB080C71EB030724BF624639464EEB27
:100F70000E0E4FF0000B0018524149414BEB0B0B8A
:100F8000B2EB080C71EB03077BF1000B24BF624648
:100F900039464EEB0E0E4FF0000B001852414941FE
:100FA0004BEB0B0BB2EB080C71EB03077BF1000B67
:100FB00024BF624639464EEB0E0E51EA020718BFB7
:100FC00046F0010616EB0E7655F1000254F10001D1
:100FD00003D5BDE88901BDE80088BDE88901BDE809
:100FE0000048B619524141EB0101A3F101037047DA
:100FF00080807F7E7D7C7B7A797877767675747356
:10100000727171706F6E6E6D6C6C6B6A6A69686814
:10101000676666656464636362616160605F5F5EAA
:101020005E5D5D5C5C5B5B5A5A5959585857575620
:101030005655555554545353525252515150505085
:101040004F4F4F4E4E4D4D4D4C4C4C4B4B4B4A4AD7
:101050004A4949494848484747474746464645451B
:101060004544444444434343434242424241414154
:10107000002B9C4630D477002BD01CB54FEA3707A5
:1010800003B44FF010004FF01001BAF1000F06D07A
:10109000BCF1000FDCBF40F0080040F008014FF049
:1010A00000000FBCBDE810400BF1010BBBF1010FBC
:1010B00008BF5FEA170722BF12F1010211F1010117
:1010C0004FF0004143F1000300F0004043EA00000C
:1010D0007047F9D35708D0E746EA064613F1400FA8
:1010E0004FEA16461FDD13F1200FDFBF16430A46F5
:1010F000002120335B42BED0C3F1200746EA0646FA
:1011000002FA07F74FEA164646EA0706C3F1200738
:1011100022FA03F201FA07F721FA03F14FF0000374
:1011200042EA0702A7E746EA020646EA06464FEA0F
:10113000164646EA0106BCBF46EA0646360C4FF0A4
:1011400000034FF000024FF0000194E72DE9804CBE
:101150009A46934670B491E8380007C831EA400CCB
:1011600048BF34EA430C03D5FFF7E6FDFFF780FFE5
:10117000F0BCBDE8008C2DE9804C9A46934670B4D3
:1011800091E8380007C810F0804F08BF13F0804F77
:1011900003D100F005F8FFF76BFFF0BCBDE8008C51
:1011A00020F07F4780EA030023F07F4C07EB0C031D
:1011B000A3F57C5300F00040A3F1FE0392F0000F72
:1011C00000F0B38095F0000F00F077802DE9014921
:1011D0004FEA11404FEA144621EA004800FB06FCA2
:1011E00024EA064708FB06F607FB08F800FB07F7AA
:1011F00018EB06484CEB164C4FEA124B18EB07481D
:101200004FEA15464CEB174022EA0B4E0BFB06FC4F
:1012100025EA06470EFB06F607FB0EFE0BFB07F75B
:101220001EEB064E4CEB164C4FF000061EEB074E25
:101230004CEB174B18EB0B0840F1000018EB0E0BB2
:1012400058EB000840F100008F1A4FF000013CBF3E
:10125000C943661B14BFB5EB040C00213CBFC94356
:10126000F61B4FEA17444EEA8E0E27EA04454FEA72
:101270001C4704FB07622CEA074C05FB07F70CFB35
:1012800005F604FB0CFC16EB074642EB174216EB87
:101290000C4642EB1C421BEB060658EB0202414196
:1012A00046EA9E0601D5BDE80189B619524141EBD7
:1012B0000101A3F10103BDE801894FEA14454FEA9A
:1012C000114724EA054621EA074C05FB07F406FB13
:1012D00007F70CFB06F105FB0CFC11EB074144EB97
:1012E00017444FEA124711EB0C4144EB1C4422EA2D
:1012F000074C05FB07F206FB07F70CFB06F605FBA0
:101300000CFC16EB074642EB174216EB0C4642EB81
:101310001C456A1854F1000148BF7047B619524184
:1013200041EB0101A3F10103704795F0000F37D0A5
:101330004FEA11424FEA144721EA024624EA074CD9
:1013400002FB07F106FB07F70CFB06F402FB0CFCA3
:1013500014EB074441EB17414FEA154714EB0C44DB
:1013600041EB1C4125EA074C02FB07F506FB07F79A
:101370000CFB06F602FB0CFC16EB074645EB17458B
:1013800016EB0C4645EB1C42121951F1000148BF07
:101390007047B619524141EB0101A3F101037047B7
:1013A0004FEA14454FEA114724EA054621EA074C63
:1013B00005FB07F106FB07F70CFB06F24FF00006F2
:1013C00005FB0CFC12EB074241EB174112EB0C4200
:1013D00051EB1C4148BF7047921841EB0101A3F14A
:1013E0000103704700BFFEE72DE9F84102460F46B2
:1013F0000023002602F11001906800EBC700456849
:10140000002486E015F80480506810F8380028BBE6
:1014100015F80480506800EBC80040680068009030
:101420009DF80000087008781844C3B2491C9DF864
:101430000100087008781844C3B2491C9DF80200E6
:10144000087008781844C3B2491C9DF8030008705E
:1014500008781844C3B2491C361D58E015F80480BA
:10146000506810F83800012825D115F8048050681C
:1014700000EBC8004068006800909DF8000008700C
:1014800008781844C3B2491C9DF801000870087818
:101490001844C3B2491C9DF802000870087818442B
:1014A000C3B2491C9DF80300087008781844C3B201
:1014B000491C361D2BE015F80480506810F83800E0
:1014C000022824D14FF0000C11E015F80480506878
:1014D00000EBC800406810F80C0008700878184449
:1014E000C3B2491C761C0CF1010000F0FF0C15F88A
:1014F0000480506800EBC800406810F80C00002819
:10150000E3D1087008781844C3B2491C761C601CEB
:10151000C4B2906810F83700A0423FF773AF402084
:101520001073577396734FF03D0882F80F800B705D
:10153000491C23200870B01DBDE8F8812DE9F04753
:1015400005460C4616464FF000092078402840D149
:10155000E0783D283DD1701E205C232839D1A17848
:10156000B01F814232D1607800282CDB6078297866
:10157000884228DC00270BE0381D225C05F10C00B6
:10158000391D4254381D205C404400F0FF087F1C88
:10159000A078B842F0DCB01E205C404502D04FF08D
:1015A000030918E02078287361786973A178A9731A
:1015B000E178E973B01E225C05F10C010A54701E3B
:1015C000225C0A5407E04FF0030904E04FF00209DF
:1015D00001E04FF0010903A0FEF728FE4846BDE8F0
:1015E000F0870000000000002DE9F84F05468A460C
:1015F000934605F110044FF000095A46514628461B
:10160000FFF79CFF00286AD195F80D90A86800EBC1
:10161000C900476800265DE0B95D686810F83100D0
:10162000B8B920788DF80000641C20788DF801008E
:10163000641C20788DF80200641C20788DF803006B
:10164000641C0098BA5D696801EBC20149680860D2
:101650003EE0B95D686810F83100012817D12078A4
:101660008DF80000641C20788DF80100641C20783F
:101670008DF80200641C20788DF80300641C00982B
:10168000BA5D696801EBC2014968086020E0B95D94
:10169000686810F8310002281AD14FF000080CE0F9
:1016A0002078BA5D696801EBC201496801F8080059
:1016B000641C08F1010000F0FF0820780028EFD139
:1016C000BA5D696801EBC201496801F80800641C51
:1016D000701CC6B2A86810F83900B0429CDC4846BD
:1016E000BDE8F88F70472DE9F0410246002500263D
:1016F000002000230024002791F803C00CF00F0500
:1017000091F803C00CF0100CBCF1000F03D091F85D
:1017100002C04CEA050591F800C0BCF1000F31D0C1
:10172000146800202BE04FF0010C0CFA00F3B1F824
:1017300000C00CEA03069E4220D183004FF00F0C3C
:101740000CFA03F7BC4305FA03FC4CEA040491F8D5
:1017500003C0BCF1280F06D14FF0010C0CFA00FCBD
:10176000C2F814C00AE091F803C0BCF1480F05D1DB
:101770004FF0010C0CFA00FCC2F810C0401C082805
:10178000D1D31460B1F800C0BCF1FF0F34DD546850
:1017900000202EE000F1080C4FF0010808FA0CF3CD
:1017A000B1F800C00CEA03069E4221D183004FF03D
:1017B0000F0C0CFA03F7BC4305FA03FC4CEA0404D3
:1017C00091F803C0BCF1280F05D100F1080C08FA0C
:1017D0000CF8C2F8148091F803C0BCF1480F07D18F
:1017E00000F1080C4FF0010808FA0CF8C2F810805C
:1017F000401C0828CED35460BDE8F08101617047D9
:101800000146084A914201D100200AE0064A91426D
:1018100001D1012005E0054A914201D1022000E0FA
:10182000FF2070470038014000440040004800405D
:1018300000BFFEE708B50121042000F0DFF83020EA
:10184000ADF8000048208DF8030003208DF8020059
:1018500069460248FFF747FF08BD00000008014045
:1018600070B504460025201D094901EB8000D0F821
:10187000000150B90A2000F00BFD201D044901EBC6
:101880008000D0F8000100B90125284670BD000095
:101890000000214210B5002006490860C82000F071
:1018A000F7FC01200449C1F8B401C82000F0F0FCA5
:1018B00010BD0000B40122420000224208B50121FF
:1018C000102000F09BF84FF40050ADF800001020FD
:1018D0008DF8030003208DF8020069460448FFF7E5
:1018E00002FF4FF400510248FFF788FF08BD0000D7
:1018F0000010014008B50121082000F07FF84FF4E6
:101900007040ADF8000010208DF8030003208DF822
:10191000020069460448FFF7E6FE4FF470410248B2
:10192000FFF76CFF08BD0000000C014000BFFEE7A0
:101930007047000070B5002100230F22C47804B363
:10194000154C246804F4E064C4F5E064210AC1F194
:101950000403CA40447804FA03F184781440214314
:1019600009010E4C0678A155047804F01F050124E6
:10197000AC4005786D11AD0005F1E025C5F80041DA
:1019800009E0047804F01F050124AC40044D0678FA
:10199000761145F8264070BD0CED00E000E400E053
:1019A00080E100E002490143024A116070470000F3
:1019B0000000FA050CED00E07047000029B1064A6E
:1019C000D2690243044BDA6104E0034AD2698243DC
:1019D000014BDA61704700000010024029B1064A4D
:1019E00012690243044B1A6104E0034A12698243FC
:1019F000014B1A61704700000010024029B1064AED
:101A000092690243044B9A6104E0034A926982435B
:101A1000014B9A61704700000010024029B1064A4C
:101A2000D2680243044BDA6004E0034AD26882437E
:101A3000014BDA60704700000010024030B5002111
:101A40000022002400232D4D6D6805F00C0121B10A
:101A5000042905D0082923D105E0294D056022E09D
:101A6000274D05601FE0254D6D6805F47012234D6C
:101A70006D6805F48034022505EB92421CB9214DB6
:101A8000554305600BE01D4D6D6805F400351DB133
:101A90001C4D5543056002E0194D5543056002E0B9
:101AA000174D056000BF00BF144D6D6805F0F001D3
:101AB0000909154D6B5C0568DD4045600F4D6D688B
:101AC00005F4E061090A104D6B5C4568DD408560F6
:101AD0000A4D6D6805F46051C90A0B4D6B5C456891
:101AE000DD40C560054D6D6805F44041890B074D2B
:101AF0006B5CC568B5FBF3F5056130BD00100240B5
:101B000000127A0000093D001E0000202E00002077
:101B1000704770B503460C4615462046FFF770FE29
:101B20000646FF2E03D0C3F828435E701D7070BDBB
:101B300070B5044640F22551D4F8280300F0A3FA0A
:101B4000C8B3D4F8280300F059FBC5B2B4F8241385
:101B5000A01C4554B4F82403401CA4F824032078A6
:101B6000012808D10A2D02D1A4F8220319E000208F
:101B7000A4F8220315E02078022812D10D2D03D1FC
:101B80000120A4F822030CE00A2D07D1B4F82203A7
:101B9000012803D10220A4F8220302E00020A4F8C7
:101BA0002203B4F82403B0F5C87F04DD0020A4F8B4
:101BB0002403A4F8220370BD10B50146B1F8222316
:101BC0000B789A4214D1B1F824238AB10024B1F8D9
:101BD0002423921E8B1C9C54B1F82423921EA1F83E
:101BE00026230022A1F82223A1F82423012000E0CB
:101BF000002010BD70B504460D464021D4F82803DE
:101C000000F0D0F92946D4F8280300F0FCFA00BF10
:101C10004021D4F8280300F029FA0128F8D170BD3A
:101C20002DE9F04107460C461546002605E02178CF
:101C30003846FFF7DFFF641C761CAE42F7D30D2158
:101C40003846FFF7D7FF0A213846FFF7D3FFBDE834
:101C5000F08110B500F002F810BD00000CB50020B6
:101C6000019000903348006840F4803031490860AA
:101C700000BF3048006800F4003000900198401C1C
:101C80000190009818B90198B0F5A06FF1D12948DA
:101C9000006800F4003010B10120009001E0002045
:101CA00000900098012843D12348006840F01000BC
:101CB000214908600846006820F0030008600846D3
:101CC000006840F0020008601A48406819494860FE
:101CD0000846406848600846406840F480604860B4
:101CE0000846406820F47C1048600846406840F48C
:101CF000E81048600846006840F08070086000BF47
:101D00000C48006800F000700028F9D009484068CD
:101D100020F00300074948600846406840F0020090
:101D2000486000BF0348406800F00C000828F9D163
:101D30000CBD00000010024000200240042808D121
:101D40004FF0E021096941F004014FF0E0221161F8
:101D500007E04FF0E021096921F004014FF0E02293
:101D6000116170477047000010B51348006840F0DB
:101D700001001149086008464068104908400E49B2
:101D80004860084600680E4908400B49086008464C
:101D9000006820F4802008600846406820F4FE00B7
:101DA00048604FF41F008860FFF753FF4FF000605A
:101DB0000449086010BD0000001002400000FFF858
:101DC000FFFFF6FE08ED00E010B540F225511D487A
:101DD00000F059F910B31B4800F010FAC4B21A48C9
:101DE000008800F40040C8B91748008800F480401B
:101DF00060B10A2C03D000201349088020E012486B
:101E0000008840F400401049088019E00D2C06D1EC
:101E10000D48008840F480400B49088010E00A48D3
:101E20000088C0F30D0009490C5407480088401C85
:101E30000549088008460088C72801DD0020088081
:101E400010BD0000003801401C00002000050020EB
:101E500070B51548FFF76CFE1348FFF7ADFE00287C
:101E600021D01148B0F82623811C1048FFF7BCFB95
:101E70000FA0FEF7DBF91248006800F003FB0446F0
:101E800022460B460F4801680FA0FEF7CFF9134812
:101E9000006800F0F7FA044622460B461048016835
:101EA00010A0FEF7C3F970BDD40100209C000020F3
:101EB000D6F7BBFABDE2CEF6CAFDBEDD3A0D0A008A
:101EC0003C000020340000206931203D2025642C96
:101ED0006631203D2025660D0A00000040000020EC
:101EE000380000206932203D2025642C6632203DD8
:101EF0002025660D0A00000010B586B004460121B9
:101F00004804FFF75BFD01210420FFF777FD23481C
:101F100000F05EF818208DF817000420ADF81400CA
:101F200003208DF8160005A91D48FFF7DCFB0420EF
:101F30008DF817000820ADF8140005A91848FFF720
:101F4000D2FB01940020ADF810000C20ADF80E007B
:101F50000020ADF80C00ADF80A00ADF8080001A9AA
:101F60000E4800F0DFF826208DF8000001208DF8E3
:101F7000030002208DF8010001208DF80200684660
:101F8000FFF7D8FC012240F22551044800F0A5F8E3
:101F90000121024800F00FF806B010BD00440040D7
:101FA0000008014001F40072B2F5007F00D100BFCB
:101FB000CA430280704721B1828942F40052828173
:101FC00004E082894DF6FF731A4082817047000059
:101FD00010B504462048844209D101218803FFF747
:101FE0001DFD00214FF48040FFF718FD32E01B4833
:101FF000844209D101214804FFF7F0FC00214FF48D
:102000000030FFF7EBFC25E01548844209D101219F
:102010008804FFF7E3FC00214FF48020FFF7DEFC8B
:1020200018E01048844209D10121C804FFF7D6FC0A
:1020300000214FF40020FFF7D1FC0BE00A48844256
:1020400008D101210805FFF7C9FC00214FF48010D9
:10205000FFF7C4FC10BD0000003801400044004000
:1020600000480040004C0040005000400246002064
:10207000B1F5007F00D100BF13880B400BB10120E8
:1020800000E00020704770B50246002400230025C0
:10209000002040F66A16B14200D100BFC1F34215DC
:1020A00001F01F03012606FA03F3012D02D19689E0
:1020B000334006E0022D02D1168A334001E0968AB1
:1020C00033400C12012606FA04F41688344013B18A
:1020D0000CB1012000E0002070BDF0B503460024E3
:1020E00000260025002040F66A17B94200D100BF43
:1020F0001846C1F3421401F01F06012707FA06F53E
:10210000012C01D10C3004E0022C01D1103000E090
:1021100014301AB107682F43076002E00768AF4325
:102120000760F0BD2DE9F04786B005460E46002455
:10213000A24600BFA1460027B08900B100BF2F46CC
:102140002C8A4CF6FF700440F08804432C82AC8942
:102150004EF6F3100440B088318908437189084372
:102160000443AC81AC8A4FF6FF400440B08904437D
:10217000AC8201A8FFF762FC1F48874202D1DDF85C
:1021800010A001E0DDF80CA0A88900F4004040B1E7
:102190000AEBCA0000EB0A1031684900B0FBF1F805
:1021A00007E00AEBCA0000EB0A1031688900B0FBB7
:1021B000F1F86420B8FBF0F004012009642101FB70
:1021C0001089A88900F4004040B1322000EBC9001A
:1021D000B0FBF1F000F00700044308E0322000EB10
:1021E00009106421B0FBF1F000F00F0004432C81D2
:1021F00006B0BDE8F087000000380140014688883D
:10220000C0F308007047C1F308028280704700BF26
:10221000FEE7490050EAC12018BF04204A0D18BF4C
:1022200040F0010040F2FF72B2EB515F08BF40F096
:102230000200012808BF0520704730380A2801D263
:10224000012070470020704700BF704710B56FF045
:102250000400FFF773FD0A4800680A49B0FBF1F07B
:10226000094908700846007800EB4001C1EBC01036
:102270004FF6FF7101EAC0000449088010BD00005C
:102280000000002000127A00140000201600002038
:102290000146114A12884A434FF0E0235A61002256
:1022A0009A611A46126942F001021A6100BF4FF0AA
:1022B000E022106900F001021AB100F48032002A15
:1022C000F5D04FF0E022126922F001024FF0E02336
:1022D0001A6100229A6170471600002000BF054A6B
:1022E000128802F04002002AF9D0C2B2014B1B1D35
:1022F0001A80704700380140FFF7A8FF4FF4A06034
:10230000FFF750FB4FF4E13000F050F8FFF792FA7E
:10231000FFF7D4FAFFF7EEFA4FF4E130FFF7ECFDE8
:10232000022218491848FFF7F4FB29E00020FFF7C4
:1023300097FA28B3FFF7AEFA14480068401C134917
:1023400008604FF07E511248006800F0C7F810494D
:10235000086000210F48FFF747F8064632460D494E
:102360000C310948FFF75CFC0948006800F08AF866
:10237000044622460B460548016807A0FDF756FFB4
:10238000D4E7000000440040D401002034000020C5
:102390003C0000209C0000206931203D2025642C59
:1023A0006631203D2025660D0A00000010B586B07C
:1023B0000446012144F20400FFF720FB4FF40070B3
:1023C000ADF8140003208DF8160018208DF81700C2
:1023D00005A91C48FFF787F94FF48060ADF8140099
:1023E00004208DF8170005A91648FFF77CF9252071
:1023F0008DF8000003208DF801008DF80200012007
:102400008DF803006846FFF795FA01940020ADF8B7
:102410000800ADF80A00ADF80C00ADF810000C2073
:10242000ADF80E0001A90848FFF77CFE012240F23A
:1024300025510548FFF751FE01210348FFF7BBFD79
:1024400006B010BD000801400038014010B5002959
:102450000AD00878002807D005487844FEF7BAFB70
:10246000002801D0002010BD0248784410BD0000B3
:10247000920300008A0300000808A0F500114FEA4B
:102480003101704743004FEAD30C4FEA3C0C434004
:102490001FBF40070CF1605113F0FE4F70471CF056
:1024A000006F03D100200CF0004170470CF0004396
:1024B00043EA507010B540EACC0000F071F800BF5C
:1024C000000000924FEA0001FFF7D6BF4FF0004135
:1024D0004FF00000A1F500217047000090EA010FC5
:1024E00048BF81F0004100F1AE80421A3CBF801A23
:1024F00089184FEAD0524FF07F4C1CEA410FA2EBF3
:10250000D15318BF9CEA026F00F03B804FF0004CA3
:102510004CEA00204CEA012121FA03FC10EB0C0CE0
:102520001ED202F1FF325FEA1C2040EBC25038BFDE
:1025300070471CF07F0F4FEA400C18BFBCF17F4F73
:1025400038BF7047C3F12003994008BF20F0010055
:10255000BCF17F4F38BF7047A0F1C04000F066B8B3
:102560004FEA3C00000A40EBC25028BF1CF0FF0FAE
:102570004FEA400CE6D018BFBCF17F4F38BF704720
:10258000EAE79CEA026F05D010EA5C0F08BF00F092
:102590000040704710B500F003F800BF64FBBE3E7A
:1025A0000EF1020E2EF0030E5EF8044B244204D40A
:1025B0004FEA4102B2F17F4F11D84FEA4003B3F125
:1025C0007F4F0CD80ED14FEAD07CB2F17F4F0CEB8D
:1025D0004C0C0CF1020C08BF4CEBD17C04E04FF02A
:1025E000080C01E04FEAD17C0CEB4C0324FA03F415
:1025F00004F00704B4F1040C06D20EEB840CBDE821
:1026000010404CF0010C6047DFE80CF007080202B4
:102610004FF00040A0F5800010BD0846420018BFF2
:10262000D2F1807288BF00F0004010BDFF2141EA66
:10263000D050C0057047000090EA010F48BF81F0FC
:1026400000413FF552AF421A04D882F00042A0EB9D
:10265000020011444FEAD0524FF07F4C1CEA410F68
:10266000A2EBD15318BF9CEA026F4AD04FF0004C46
:102670004CEA00204CEA012121FA03FCB0EB0C0CDF
:102680000FD412F0FE0F36D05FEA4C001DD50012B9
:1026900040EBC25038BF70471CF03F0F18BF704767
:1026A0000BE0A2F101025FEA1C2040EBC25038BFF0
:1026B00070471CF07F0F18BF7047C3F1200399408B
:1026C00014BF401E20F00100704780084FEA12231B
:1026D00008BF7047B0FA80FCA2EB0C02CCF1280CCA
:1026E00060FA0CF093EA122F04BF00EBC25070475F
:1026F0004FEAC3707047130A5FEADC1008BF7047E7
:10270000F6E79CEA026F04D010EA5C0F08BF0020D5
:10271000704710B5FFF744FF40DFF63E81F0004000
:102720007047FDF7C5BF040000080000000000006E
:10273000000200010000100002400000000000A0A4
:102740000000000005400000000000C8000000007C
:102750000C4000000000409C0000000019400000F8
:102760000020BCBE0000000034400000BFC91B8E2A
:1027700000000004B5400000504BCFD06607E2CF08
:10278000010000006C4100003E8251AADFEEA73438
:1027900001000000D9420000DCB5A0E23A301F97EA
:1027A000FFFFFFFFB4450000FD25A0C8E9A3C14F0E
:1027B000FFFFFFFFFF3F000000000080000000005F
:1027C000FF3F000000000080000000000828000813
:1027D00000000020D4010000280100085C28000847
:1027E000D40100201C0B0000840100081C00000024
:1027F00043000000F8FFFFFF0C0000000E00000087
:102800000F0000002E0000001184A24A04E009011C
:10281000020304060708092916691A0513020406AB
:1028200008660201030405223442201A38083201E6
:102830005A3C081A400832024BC805084B2C0608BF
:102840005A44185A46285A48081A49082304061AAE
:0C2850004C085A7C5401FF0129000000D4
:04000005080001E905
:00000001FF
